{
  "contractName": "SupplyChain",
  "abi": [
    {
      "inputs": [
        {
          "internalType": "address",
          "name": "manager",
          "type": "address"
        },
        {
          "internalType": "string",
          "name": "_supplyChainTitle",
          "type": "string"
        }
      ],
      "stateMutability": "nonpayable",
      "type": "constructor"
    },
    {
      "inputs": [
        {
          "internalType": "uint256",
          "name": "",
          "type": "uint256"
        }
      ],
      "name": "chains",
      "outputs": [
        {
          "internalType": "string",
          "name": "chainName",
          "type": "string"
        },
        {
          "internalType": "string",
          "name": "productName",
          "type": "string"
        },
        {
          "internalType": "string",
          "name": "productImageLink",
          "type": "string"
        },
        {
          "internalType": "string",
          "name": "ProductImageInformation",
          "type": "string"
        },
        {
          "internalType": "string",
          "name": "chainLocation",
          "type": "string"
        },
        {
          "internalType": "string",
          "name": "tagName",
          "type": "string"
        },
        {
          "internalType": "string",
          "name": "tagInformation",
          "type": "string"
        }
      ],
      "stateMutability": "view",
      "type": "function"
    },
    {
      "inputs": [
        {
          "internalType": "uint256",
          "name": "",
          "type": "uint256"
        }
      ],
      "name": "companyInformations",
      "outputs": [
        {
          "internalType": "string",
          "name": "madeByCompanyName",
          "type": "string"
        },
        {
          "internalType": "string",
          "name": "madeByCompanyLogoLink",
          "type": "string"
        },
        {
          "internalType": "string",
          "name": "madeByCompanyInformation",
          "type": "string"
        },
        {
          "internalType": "string",
          "name": "madeByCompanyLocation",
          "type": "string"
        }
      ],
      "stateMutability": "view",
      "type": "function"
    },
    {
      "inputs": [],
      "name": "madeWith",
      "outputs": [
        {
          "internalType": "string",
          "name": "",
          "type": "string"
        }
      ],
      "stateMutability": "view",
      "type": "function"
    },
    {
      "inputs": [],
      "name": "madeWithInsertedOnChain",
      "outputs": [
        {
          "internalType": "uint256",
          "name": "",
          "type": "uint256"
        }
      ],
      "stateMutability": "view",
      "type": "function"
    },
    {
      "inputs": [],
      "name": "manufactureAddress",
      "outputs": [
        {
          "internalType": "address payable",
          "name": "",
          "type": "address"
        }
      ],
      "stateMutability": "view",
      "type": "function"
    },
    {
      "inputs": [],
      "name": "productArrivalDateInsertedOnChain",
      "outputs": [
        {
          "internalType": "uint256",
          "name": "",
          "type": "uint256"
        }
      ],
      "stateMutability": "view",
      "type": "function"
    },
    {
      "inputs": [],
      "name": "productArrivalDay",
      "outputs": [
        {
          "internalType": "uint256",
          "name": "",
          "type": "uint256"
        }
      ],
      "stateMutability": "view",
      "type": "function"
    },
    {
      "inputs": [],
      "name": "productArrivalMonth",
      "outputs": [
        {
          "internalType": "uint256",
          "name": "",
          "type": "uint256"
        }
      ],
      "stateMutability": "view",
      "type": "function"
    },
    {
      "inputs": [],
      "name": "productArrivalYear",
      "outputs": [
        {
          "internalType": "uint256",
          "name": "",
          "type": "uint256"
        }
      ],
      "stateMutability": "view",
      "type": "function"
    },
    {
      "inputs": [],
      "name": "productExpiredDateInsertedOnChain",
      "outputs": [
        {
          "internalType": "uint256",
          "name": "",
          "type": "uint256"
        }
      ],
      "stateMutability": "view",
      "type": "function"
    },
    {
      "inputs": [],
      "name": "productExpiredDay",
      "outputs": [
        {
          "internalType": "uint256",
          "name": "",
          "type": "uint256"
        }
      ],
      "stateMutability": "view",
      "type": "function"
    },
    {
      "inputs": [],
      "name": "productExpiredMonth",
      "outputs": [
        {
          "internalType": "uint256",
          "name": "",
          "type": "uint256"
        }
      ],
      "stateMutability": "view",
      "type": "function"
    },
    {
      "inputs": [],
      "name": "productExpiredYear",
      "outputs": [
        {
          "internalType": "uint256",
          "name": "",
          "type": "uint256"
        }
      ],
      "stateMutability": "view",
      "type": "function"
    },
    {
      "inputs": [],
      "name": "supplyChainTitle",
      "outputs": [
        {
          "internalType": "string",
          "name": "",
          "type": "string"
        }
      ],
      "stateMutability": "view",
      "type": "function"
    },
    {
      "inputs": [
        {
          "internalType": "string",
          "name": "_chainName",
          "type": "string"
        },
        {
          "internalType": "string",
          "name": "_productName",
          "type": "string"
        },
        {
          "internalType": "string",
          "name": "_productImageLink",
          "type": "string"
        },
        {
          "internalType": "string",
          "name": "_ProductImageInforrmation",
          "type": "string"
        },
        {
          "internalType": "string",
          "name": "_chainLocation",
          "type": "string"
        },
        {
          "internalType": "string",
          "name": "_tagName",
          "type": "string"
        },
        {
          "internalType": "string",
          "name": "_tagInformation",
          "type": "string"
        },
        {
          "internalType": "string",
          "name": "_madeByCompanyName",
          "type": "string"
        },
        {
          "internalType": "string",
          "name": "_madeByCompanyLogoLink",
          "type": "string"
        },
        {
          "internalType": "string",
          "name": "_madeByCompanyInformation",
          "type": "string"
        },
        {
          "internalType": "string",
          "name": "_madeByCompanyLocation",
          "type": "string"
        }
      ],
      "name": "createChain",
      "outputs": [],
      "stateMutability": "nonpayable",
      "type": "function"
    },
    {
      "inputs": [
        {
          "internalType": "string",
          "name": "_madeWith",
          "type": "string"
        }
      ],
      "name": "insertMadeWith",
      "outputs": [],
      "stateMutability": "nonpayable",
      "type": "function"
    },
    {
      "inputs": [
        {
          "internalType": "uint8",
          "name": "day",
          "type": "uint8"
        },
        {
          "internalType": "uint8",
          "name": "month",
          "type": "uint8"
        },
        {
          "internalType": "uint16",
          "name": "year",
          "type": "uint16"
        }
      ],
      "name": "insertProductExpiredDate",
      "outputs": [],
      "stateMutability": "nonpayable",
      "type": "function"
    },
    {
      "inputs": [
        {
          "internalType": "uint8",
          "name": "day",
          "type": "uint8"
        },
        {
          "internalType": "uint8",
          "name": "month",
          "type": "uint8"
        },
        {
          "internalType": "uint16",
          "name": "year",
          "type": "uint16"
        }
      ],
      "name": "insertProductArrivalDate",
      "outputs": [],
      "stateMutability": "nonpayable",
      "type": "function"
    },
    {
      "inputs": [],
      "name": "setProductExpiredDateOnChain",
      "outputs": [],
      "stateMutability": "nonpayable",
      "type": "function"
    },
    {
      "inputs": [],
      "name": "setProductArrivalDateOnChain",
      "outputs": [],
      "stateMutability": "nonpayable",
      "type": "function"
    },
    {
      "inputs": [],
      "name": "getSummary",
      "outputs": [
        {
          "internalType": "uint256",
          "name": "",
          "type": "uint256"
        },
        {
          "internalType": "address",
          "name": "",
          "type": "address"
        },
        {
          "internalType": "string",
          "name": "",
          "type": "string"
        }
      ],
      "stateMutability": "view",
      "type": "function"
    }
  ],
  "bytecode": "0x60806040523480156200001157600080fd5b5060405162001dfa38038062001dfa83398181016040528101906200003791906200034b565b80600090805190602001906200004f92919062000099565b5081600160006101000a81548173ffffffffffffffffffffffffffffffffffffffff021916908373ffffffffffffffffffffffffffffffffffffffff160217905550505062000416565b828054620000a790620003e0565b90600052602060002090601f016020900481019282620000cb576000855562000117565b82601f10620000e657805160ff191683800117855562000117565b8280016001018555821562000117579182015b8281111562000116578251825591602001919060010190620000f9565b5b5090506200012691906200012a565b5090565b5b80821115620001455760008160009055506001016200012b565b5090565b6000604051905090565b600080fd5b600080fd5b600073ffffffffffffffffffffffffffffffffffffffff82169050919050565b60006200018a826200015d565b9050919050565b6200019c816200017d565b8114620001a857600080fd5b50565b600081519050620001bc8162000191565b92915050565b600080fd5b600080fd5b6000601f19601f8301169050919050565b7f4e487b7100000000000000000000000000000000000000000000000000000000600052604160045260246000fd5b6200021782620001cc565b810181811067ffffffffffffffff82111715620002395762000238620001dd565b5b80604052505050565b60006200024e62000149565b90506200025c82826200020c565b919050565b600067ffffffffffffffff8211156200027f576200027e620001dd565b5b6200028a82620001cc565b9050602081019050919050565b60005b83811015620002b75780820151818401526020810190506200029a565b83811115620002c7576000848401525b50505050565b6000620002e4620002de8462000261565b62000242565b905082815260208101848484011115620003035762000302620001c7565b5b6200031084828562000297565b509392505050565b600082601f83011262000330576200032f620001c2565b5b815162000342848260208601620002cd565b91505092915050565b6000806040838503121562000365576200036462000153565b5b60006200037585828601620001ab565b925050602083015167ffffffffffffffff81111562000399576200039862000158565b5b620003a78582860162000318565b9150509250929050565b7f4e487b7100000000000000000000000000000000000000000000000000000000600052602260045260246000fd5b60006002820490506001821680620003f957607f821691505b6020821081141562000410576200040f620003b1565b5b50919050565b6119d480620004266000396000f3fe608060405234801561001057600080fd5b50600436106101375760003560e01c8063a1a69109116100b8578063d2d72dac1161007c578063d2d72dac146102ff578063dd3a62a21461031d578063deb4ffb71461033b578063edf3c35214610359578063f5b9427e14610375578063fc9b5d141461039357610137565b8063a1a6910914610268578063a561870014610286578063bc1e8d1f14610290578063bd06c613146102ae578063c36e3bd0146102cc57610137565b80637b681f31116100ff5780637b681f31146101d857806382d10b0d146101f657806388561d6714610212578063923e68211461022e57806396ca41601461024a57610137565b806324d420b81461013c5780632df6b0cb1461015a5780634051ddac146101785780635105b02614610198578063550325b5146101a2575b600080fd5b6101446103b1565b60405161015191906111d2565b60405180910390f35b6101626103b7565b60405161016f919061122e565b60405180910390f35b6101806103dd565b60405161018f93929190611303565b60405180910390f35b6101a06104a4565b005b6101bc60048036038101906101b79190611381565b61050c565b6040516101cf97969594939291906113ae565b60405180910390f35b6101e0610916565b6040516101ed91906111d2565b60405180910390f35b610210600480360381019061020b91906114c1565b61091c565b005b61022c60048036038101906102279190611649565b6109a2565b005b610248600480360381019061024391906114c1565b610a22565b005b610252610aa8565b60405161025f91906111d2565b60405180910390f35b610270610aae565b60405161027d91906111d2565b60405180910390f35b61028e610ab4565b005b610298610b1c565b6040516102a59190611692565b60405180910390f35b6102b6610baa565b6040516102c391906111d2565b60405180910390f35b6102e660048036038101906102e19190611381565b610bb0565b6040516102f694939291906116b4565b60405180910390f35b610307610e10565b60405161031491906111d2565b60405180910390f35b610325610e16565b60405161033291906111d2565b60405180910390f35b610343610e1c565b60405161035091906111d2565b60405180910390f35b610373600480360381019061036e9190611715565b610e22565b005b61037d611082565b60405161038a9190611692565b60405180910390f35b61039b611110565b6040516103a891906111d2565b60405180910390f35b600b5481565b600160009054906101000a900473ffffffffffffffffffffffffffffffffffffffff1681565b6000806060600c80549050600160009054906101000a900473ffffffffffffffffffffffffffffffffffffffff1660008080546104199061196c565b80601f01602080910402602001604051908101604052809291908181526020018280546104459061196c565b80156104925780601f1061046757610100808354040283529160200191610492565b820191906000526020600020905b81548152906001019060200180831161047557829003601f168201915b50505050509050925092509250909192565b600160009054906101000a900473ffffffffffffffffffffffffffffffffffffffff1673ffffffffffffffffffffffffffffffffffffffff163373ffffffffffffffffffffffffffffffffffffffff16146104fe57600080fd5b600c80549050600381905550565b600c818154811061051c57600080fd5b906000526020600020906007020160009150905080600001805461053f9061196c565b80601f016020809104026020016040519081016040528092919081815260200182805461056b9061196c565b80156105b85780601f1061058d576101008083540402835291602001916105b8565b820191906000526020600020905b81548152906001019060200180831161059b57829003601f168201915b5050505050908060010180546105cd9061196c565b80601f01602080910402602001604051908101604052809291908181526020018280546105f99061196c565b80156106465780601f1061061b57610100808354040283529160200191610646565b820191906000526020600020905b81548152906001019060200180831161062957829003601f168201915b50505050509080600201805461065b9061196c565b80601f01602080910402602001604051908101604052809291908181526020018280546106879061196c565b80156106d45780601f106106a9576101008083540402835291602001916106d4565b820191906000526020600020905b8154815290600101906020018083116106b757829003601f168201915b5050505050908060030180546106e99061196c565b80601f01602080910402602001604051908101604052809291908181526020018280546107159061196c565b80156107625780601f1061073757610100808354040283529160200191610762565b820191906000526020600020905b81548152906001019060200180831161074557829003601f168201915b5050505050908060040180546107779061196c565b80601f01602080910402602001604051908101604052809291908181526020018280546107a39061196c565b80156107f05780601f106107c5576101008083540402835291602001916107f0565b820191906000526020600020905b8154815290600101906020018083116107d357829003601f168201915b5050505050908060050180546108059061196c565b80601f01602080910402602001604051908101604052809291908181526020018280546108319061196c565b801561087e5780601f106108535761010080835404028352916020019161087e565b820191906000526020600020905b81548152906001019060200180831161086157829003601f168201915b5050505050908060060180546108939061196c565b80601f01602080910402602001604051908101604052809291908181526020018280546108bf9061196c565b801561090c5780601f106108e15761010080835404028352916020019161090c565b820191906000526020600020905b8154815290600101906020018083116108ef57829003601f168201915b5050505050905087565b60055481565b600160009054906101000a900473ffffffffffffffffffffffffffffffffffffffff1673ffffffffffffffffffffffffffffffffffffffff163373ffffffffffffffffffffffffffffffffffffffff161461097657600080fd5b8260ff166006819055508160ff166007819055508061ffff1660088190555061099d610ab4565b505050565b600160009054906101000a900473ffffffffffffffffffffffffffffffffffffffff1673ffffffffffffffffffffffffffffffffffffffff163373ffffffffffffffffffffffffffffffffffffffff16146109fc57600080fd5b8060049080519060200190610a12929190611116565b50600c8054905060058190555050565b600160009054906101000a900473ffffffffffffffffffffffffffffffffffffffff1673ffffffffffffffffffffffffffffffffffffffff163373ffffffffffffffffffffffffffffffffffffffff1614610a7c57600080fd5b8260ff166009819055508160ff16600a819055508061ffff16600b81905550610aa36104a4565b505050565b60025481565b60065481565b600160009054906101000a900473ffffffffffffffffffffffffffffffffffffffff1673ffffffffffffffffffffffffffffffffffffffff163373ffffffffffffffffffffffffffffffffffffffff1614610b0e57600080fd5b600c80549050600281905550565b60048054610b299061196c565b80601f0160208091040260200160405190810160405280929190818152602001828054610b559061196c565b8015610ba25780601f10610b7757610100808354040283529160200191610ba2565b820191906000526020600020905b815481529060010190602001808311610b8557829003601f168201915b505050505081565b60085481565b600d8181548110610bc057600080fd5b9060005260206000209060040201600091509050806000018054610be39061196c565b80601f0160208091040260200160405190810160405280929190818152602001828054610c0f9061196c565b8015610c5c5780601f10610c3157610100808354040283529160200191610c5c565b820191906000526020600020905b815481529060010190602001808311610c3f57829003601f168201915b505050505090806001018054610c719061196c565b80601f0160208091040260200160405190810160405280929190818152602001828054610c9d9061196c565b8015610cea5780601f10610cbf57610100808354040283529160200191610cea565b820191906000526020600020905b815481529060010190602001808311610ccd57829003601f168201915b505050505090806002018054610cff9061196c565b80601f0160208091040260200160405190810160405280929190818152602001828054610d2b9061196c565b8015610d785780601f10610d4d57610100808354040283529160200191610d78565b820191906000526020600020905b815481529060010190602001808311610d5b57829003601f168201915b505050505090806003018054610d8d9061196c565b80601f0160208091040260200160405190810160405280929190818152602001828054610db99061196c565b8015610e065780601f10610ddb57610100808354040283529160200191610e06565b820191906000526020600020905b815481529060010190602001808311610de957829003601f168201915b5050505050905084565b600a5481565b60095481565b60075481565b600160009054906101000a900473ffffffffffffffffffffffffffffffffffffffff1673ffffffffffffffffffffffffffffffffffffffff163373ffffffffffffffffffffffffffffffffffffffff1614610e7c57600080fd5b60006040518060e001604052808d81526020018c81526020018b81526020018a8152602001898152602001888152602001878152509050600c8190806001815401808255809150506001900390600052602060002090600702016000909190919091506000820151816000019080519060200190610efb929190611116565b506020820151816001019080519060200190610f18929190611116565b506040820151816002019080519060200190610f35929190611116565b506060820151816003019080519060200190610f52929190611116565b506080820151816004019080519060200190610f6f929190611116565b5060a0820151816005019080519060200190610f8c929190611116565b5060c0820151816006019080519060200190610fa9929190611116565b50505060006040518060800160405280878152602001868152602001858152602001848152509050600d8190806001815401808255809150506001900390600052602060002090600402016000909190919091506000820151816000019080519060200190611019929190611116565b506020820151816001019080519060200190611036929190611116565b506040820151816002019080519060200190611053929190611116565b506060820151816003019080519060200190611070929190611116565b50505050505050505050505050505050565b6000805461108f9061196c565b80601f01602080910402602001604051908101604052809291908181526020018280546110bb9061196c565b80156111085780601f106110dd57610100808354040283529160200191611108565b820191906000526020600020905b8154815290600101906020018083116110eb57829003601f168201915b505050505081565b60035481565b8280546111229061196c565b90600052602060002090601f016020900481019282611144576000855561118b565b82601f1061115d57805160ff191683800117855561118b565b8280016001018555821561118b579182015b8281111561118a57825182559160200191906001019061116f565b5b509050611198919061119c565b5090565b5b808211156111b557600081600090555060010161119d565b5090565b6000819050919050565b6111cc816111b9565b82525050565b60006020820190506111e760008301846111c3565b92915050565b600073ffffffffffffffffffffffffffffffffffffffff82169050919050565b6000611218826111ed565b9050919050565b6112288161120d565b82525050565b6000602082019050611243600083018461121f565b92915050565b6000611254826111ed565b9050919050565b61126481611249565b82525050565b600081519050919050565b600082825260208201905092915050565b60005b838110156112a4578082015181840152602081019050611289565b838111156112b3576000848401525b50505050565b6000601f19601f8301169050919050565b60006112d58261126a565b6112df8185611275565b93506112ef818560208601611286565b6112f8816112b9565b840191505092915050565b600060608201905061131860008301866111c3565b611325602083018561125b565b818103604083015261133781846112ca565b9050949350505050565b6000604051905090565b600080fd5b600080fd5b61135e816111b9565b811461136957600080fd5b50565b60008135905061137b81611355565b92915050565b6000602082840312156113975761139661134b565b5b60006113a58482850161136c565b91505092915050565b600060e08201905081810360008301526113c8818a6112ca565b905081810360208301526113dc81896112ca565b905081810360408301526113f081886112ca565b9050818103606083015261140481876112ca565b9050818103608083015261141881866112ca565b905081810360a083015261142c81856112ca565b905081810360c083015261144081846112ca565b905098975050505050505050565b600060ff82169050919050565b6114648161144e565b811461146f57600080fd5b50565b6000813590506114818161145b565b92915050565b600061ffff82169050919050565b61149e81611487565b81146114a957600080fd5b50565b6000813590506114bb81611495565b92915050565b6000806000606084860312156114da576114d961134b565b5b60006114e886828701611472565b93505060206114f986828701611472565b925050604061150a868287016114ac565b9150509250925092565b600080fd5b600080fd5b7f4e487b7100000000000000000000000000000000000000000000000000000000600052604160045260246000fd5b611556826112b9565b810181811067ffffffffffffffff821117156115755761157461151e565b5b80604052505050565b6000611588611341565b9050611594828261154d565b919050565b600067ffffffffffffffff8211156115b4576115b361151e565b5b6115bd826112b9565b9050602081019050919050565b82818337600083830152505050565b60006115ec6115e784611599565b61157e565b90508281526020810184848401111561160857611607611519565b5b6116138482856115ca565b509392505050565b600082601f8301126116305761162f611514565b5b81356116408482602086016115d9565b91505092915050565b60006020828403121561165f5761165e61134b565b5b600082013567ffffffffffffffff81111561167d5761167c611350565b5b6116898482850161161b565b91505092915050565b600060208201905081810360008301526116ac81846112ca565b905092915050565b600060808201905081810360008301526116ce81876112ca565b905081810360208301526116e281866112ca565b905081810360408301526116f681856112ca565b9050818103606083015261170a81846112ca565b905095945050505050565b60008060008060008060008060008060006101608c8e03121561173b5761173a61134b565b5b60008c013567ffffffffffffffff81111561175957611758611350565b5b6117658e828f0161161b565b9b505060208c013567ffffffffffffffff81111561178657611785611350565b5b6117928e828f0161161b565b9a505060408c013567ffffffffffffffff8111156117b3576117b2611350565b5b6117bf8e828f0161161b565b99505060608c013567ffffffffffffffff8111156117e0576117df611350565b5b6117ec8e828f0161161b565b98505060808c013567ffffffffffffffff81111561180d5761180c611350565b5b6118198e828f0161161b565b97505060a08c013567ffffffffffffffff81111561183a57611839611350565b5b6118468e828f0161161b565b96505060c08c013567ffffffffffffffff81111561186757611866611350565b5b6118738e828f0161161b565b95505060e08c013567ffffffffffffffff81111561189457611893611350565b5b6118a08e828f0161161b565b9450506101008c013567ffffffffffffffff8111156118c2576118c1611350565b5b6118ce8e828f0161161b565b9350506101208c013567ffffffffffffffff8111156118f0576118ef611350565b5b6118fc8e828f0161161b565b9250506101408c013567ffffffffffffffff81111561191e5761191d611350565b5b61192a8e828f0161161b565b9150509295989b509295989b9093969950565b7f4e487b7100000000000000000000000000000000000000000000000000000000600052602260045260246000fd5b6000600282049050600182168061198457607f821691505b602082108114156119985761199761193d565b5b5091905056fea26469706673582212202389cc8895897d9b8add5bed726206821260e84af731264d3b9493bef57806d564736f6c63430008090033",
  "immutableReferences": {},
  "source": "// SPDX-License-Identifier: GPL-3.0 \r\npragma solidity >=0.7.0 <0.9.0;\r\n\r\ncontract SupplyChainFactory{\r\n    \r\n    address[] public deployedSupplyChain;\r\n\r\n    function createSupplyChain( string memory _supplyChainTitle ) public {\r\n        SupplyChain newSupplyChain = new SupplyChain(   msg.sender, \r\n                                                                 _supplyChainTitle );\r\n\r\n        deployedSupplyChain.push( address(newSupplyChain) );\r\n    }\r\n    \r\n    function getDeployedSupplyChain() public view returns( address[] memory ){\r\n        return deployedSupplyChain;\r\n    }\r\n}\r\n\r\ncontract SupplyChain{\r\n    \r\n    string public supplyChainTitle;\r\n    address payable public manufactureAddress;\r\n    uint public productExpiredDateInsertedOnChain;\r\n    uint public productArrivalDateInsertedOnChain;\r\n    string public madeWith;\r\n    uint public madeWithInsertedOnChain;\r\n    \r\n    uint public productExpiredDay;\r\n    uint public productExpiredMonth;\r\n    uint public productExpiredYear;\r\n    \r\n    uint public productArrivalDay;\r\n    uint public productArrivalMonth;\r\n    uint public productArrivalYear;\r\n\r\n    struct Chain{\r\n        string chainName;\r\n        string productName;\r\n        string productImageLink;\r\n        string ProductImageInformation;\r\n        string chainLocation;\r\n        string tagName;\r\n        string tagInformation;\r\n    }\r\n    Chain[] public chains;\r\n    \r\n    struct CompanyInformation{\r\n        string madeByCompanyName;\r\n        string madeByCompanyLogoLink;\r\n        string madeByCompanyInformation;\r\n        string madeByCompanyLocation;\r\n    }\r\n    CompanyInformation[] public companyInformations;\r\n    \r\n    modifier restrictedOnlyForManufacture(){\r\n        require( msg.sender == manufactureAddress );\r\n        _;\r\n    }\r\n\r\n    constructor(    address manager, \r\n                    string memory _supplyChainTitle \r\n    ){\r\n        supplyChainTitle = _supplyChainTitle;\r\n        manufactureAddress = payable( manager );\r\n    }\r\n    \r\n    /*\r\n        Insert data by Manufacture \r\n    */\r\n    function createChain (    \r\n                           \r\n                            string memory _chainName,\r\n                            string memory _productName,\r\n                            string memory _productImageLink,\r\n                            string memory _ProductImageInforrmation,\r\n                            string memory _chainLocation,\r\n                            string memory _tagName,\r\n                            string memory _tagInformation,\r\n                            string memory _madeByCompanyName,\r\n                            string memory _madeByCompanyLogoLink,\r\n                            string memory _madeByCompanyInformation,\r\n                            string memory _madeByCompanyLocation\r\n                            \r\n    ) public restrictedOnlyForManufacture {\r\n        \r\n        Chain memory newChain = Chain({\r\n            chainName: _chainName,\r\n            productName: _productName,\r\n            productImageLink: _productImageLink,\r\n            ProductImageInformation: _ProductImageInforrmation,\r\n            chainLocation: _chainLocation,\r\n            tagName: _tagName,\r\n            tagInformation: _tagInformation\r\n        });\r\n        \r\n        chains.push( newChain );\r\n        \r\n        CompanyInformation memory newCompanyInformation = CompanyInformation({\r\n            madeByCompanyName: _madeByCompanyName,\r\n            madeByCompanyLogoLink: _madeByCompanyLogoLink,\r\n            madeByCompanyInformation: _madeByCompanyInformation,\r\n            madeByCompanyLocation: _madeByCompanyLocation\r\n        });\r\n        \r\n        companyInformations.push( newCompanyInformation );\r\n    }\r\n    \r\n    function insertMadeWith( string memory _madeWith ) public restrictedOnlyForManufacture {\r\n        madeWith = _madeWith;\r\n        madeWithInsertedOnChain = chains.length;\r\n    }\r\n    \r\n    function insertProductExpiredDate(\r\n         uint8 day,\r\n         uint8 month,\r\n         uint16 year\r\n    ) public restrictedOnlyForManufacture {\r\n        \r\n        productExpiredDay = day;\r\n        productExpiredMonth = month;\r\n        productExpiredYear =  year;\r\n        setProductExpiredDateOnChain();\r\n    }\r\n    \r\n    function insertProductArrivalDate(\r\n         uint8 day,\r\n         uint8 month,\r\n         uint16 year\r\n    ) public restrictedOnlyForManufacture {\r\n        productArrivalDay = day;\r\n        productArrivalMonth = month;\r\n        productArrivalYear =  year;\r\n        setProductArrivalDateOnChain();\r\n    }\r\n\r\n    function setProductExpiredDateOnChain() public restrictedOnlyForManufacture {\r\n        productExpiredDateInsertedOnChain = chains.length;\r\n    }\r\n\r\n    function setProductArrivalDateOnChain() public restrictedOnlyForManufacture {\r\n        productArrivalDateInsertedOnChain = chains.length;\r\n    }\r\n\r\n    function getSummary() public view returns(  uint,\r\n                                                address,\r\n                                                string memory\r\n    ){\r\n        return(\r\n            chains.length,\r\n            manufactureAddress,\r\n            supplyChainTitle\r\n        );\r\n    }\r\n\r\n    /*\r\n        Destroy Contract by Manufacture\r\n    */\r\n    /*function destroyContract() public restrictedOnlyForManufacture{\r\n        //\r\n        //    sending all funds to the manager public account \r\n        //\r\n        selfdestruct( manufactureAddress );\r\n    }*/\r\n}",
  "sourcePath": "C:\\Users\\ANISH\\Desktop\\SupplyChain\\contracts\\SupplyChain.sol",
  "compiler": {
    "name": "solc",
    "version": "0.8.9+commit.e5eed63a.Emscripten.clang"
  },
  "schemaVersion": "3.4.3",
  "updatedAt": "2021-10-07T13:50:19.998Z",
  "devdoc": {
    "kind": "dev",
    "methods": {},
    "version": 1
  },
  "userdoc": {
    "kind": "user",
    "methods": {},
    "version": 1
  }
}